:020000040800F2
:1000000010050020010100080D100008C50F0008B0
:1000100009100008D90C000875190008000000003C
:100020000000000000000000000000000D150008A6
:10003000310D00080000000061130008851600085B
:100040001B0100081B0100081B0100081B01000820
:100050001B0100081B0100081B0100081B01000810
:100060001B0100081B0100081B0100081B01000800
:100070001B0100081B0100081B0100081B010008F0
:100080001B0100081B0100081B0100081B010008E0
:100090001B0100081B0100081B0100081B010008D0
:1000A0001B0100081B0100081B0100081B010008C0
:1000B0001B0100081B0100081B0100081B010008B0
:1000C0001B0100081B0100081B0100081B010008A0
:1000D0001B0100081B0100081B0100081B01000890
:1000E0001B0100081B0100081B010008DFF80CD0F1
:1000F00000F06EFC0048004769240008100500204D
:100100000648804706480047FEE7FEE7FEE7FEE7B1
:10011000FEE7FEE7FEE7FEE7FEE7FEE789160008DA
:10012000ED00000840EA01039B0703D009E008C97D
:10013000121F08C0042AFAD203E011F8013B00F8AC
:10014000013B521EF9D27047D2B201E000F8012BF8
:10015000491EFBD270470022F6E710B513460A4647
:1001600004461946FFF7F0FF204610BDF0B480EAC0
:100170000102D40F4200B2EB410F02D20246084600
:1001800011464A0042D0C30DDDB2C1F3C752AD1AC9
:10019000202D35DAC1F3160141F4000204B15242B8
:1001A000C5F1200602FA06F12A411044B3EBD05FF4
:1001B00023D0C4B1012DA0EBC35009DCF0BC4FF03B
:1001C000004202EAC352DBB200F5000000F029BB96
:1001D000400000F1807000EBC350A0F1807040EA55
:1001E000D170490009E0490841EAC071A0EBC35051
:1001F00000F50000400800EBC350F0BC00F008BB65
:100200006142012202EB4101001BF6E7F0BC70479E
:1002100081F00041AAE780F00040A7E780EA0102F0
:1002200010B502F00043400022D04A001FD0010E5A
:1002300001EB1261C0F35600C2F3560240F4000015
:1002400042F40002A0FB022000047F39140400D015
:10025000401C50EA124001D44000491EC2B20C06B4
:1002600004EBD010401C4008802A02D003E000209C
:1002700010BD20F00100002900DA0020184310BD55
:1002800030B480EA010202F0004530F0004221F073
:10029000004013D090B1C30DD40DC2F31601C0F3CA
:1002A0001600E41A41F4000140F400027D3491424A
:1002B00001D3641C00E04900002C02DA30BC0020AD
:1002C00070474FF400000023914201D3891A034381
:1002D00040084FEA4101F7D151B1914202D14FF0AC
:1002E000004105E002D24FF0010101E06FF0010191
:1002F00003EBC450284430BC00F08ABA2DE9FE4F0D
:10030000804681EA0300C00F0C46009021F00041B6
:1003100023F00045B8EB0200A94105D24046214632
:1003200090461C460B46024623F00040104347D03F
:10033000270DC7F30A00C3F30A510290401A019037
:1003400040286BDAC3F3130040F4801B00989246F8
:1003500020B10023D2EB030A63EB0B0B0198594643
:10036000C0F14002504600F032FA06460D465046B3
:100370005946019A00F03AFA10EB08006141002456
:1003800087EA115284EAE7731A4340D0009A62B3B5
:10039000019A012A4FEA075215DC001B61EB0201AA
:1003A0004FF0004202EA0752CDE90042001C41F53D
:1003B000801132462B4600F07DFA03B0BDE8F08F85
:1003C00040462146F9E7001B61EB0201001C41F5A4
:1003D000801300185B412018A2F5001747EB0301BA
:1003E00040EAD570B6196D4111E06D084FEA360646
:1003F00045EAC0754FEA0752001B61EB0201001C81
:1004000041F5801149084FEA300000195141324648
:100410002B4603B0BDE8F04F00F03DBA0098012232
:1004200040000023D0EB020263EBE073009821460A
:100430004FEAE074B8EB000061EB0401E9E783F0F8
:1004400000435BE781F0004158E72DE9FE4F81EA68
:10045000030404F0004421F0004100944FF0000B2D
:1004600023F0004350EA01045ED052EA03045BD05B
:10047000C3F30A54C1F30A552C44A4F2F334019493
:10048000A0FB0254C1F3130141F48011C3F3130321
:1004900043F4801301FB024400FB034E840A970AD5
:1004A00044EA815447EA8357A4FB076802958D0A02
:1004B00005FB07854FEA932C04FB0C542705029D8E
:1004C0004FEA065847EA1637B5EB08056EEB070CFE
:1004D000870E920E47EA811742EA8312A7FB0201B8
:1004E000B6EB0B0164EB00042B0D43EA0C335E18F2
:1004F00044EB1C50DA465146E7FB0201C5F31304F6
:100500004FEA0B3343EA14534FEA0432019C43EAA7
:100510000603A4F10C040294009CCDE900B400F0A1
:10052000C9F903B0BDE8F08F00200146F9E72DE9D5
:10053000F04D81EA030404F0004B21F0004514461D
:100540004FF0000A23F0004150EA050220D054EA9F
:1005500001021DD0C5F30A570246C5F31303C1F3C8
:100560001300C1F30A5640F4801543F48013A7EB3F
:100570000608101BD64608F2FD3873EB050002D3BF
:1005800008F1010801E092185B41B8F1000F03DAAD
:1005900000200146BDE8F08D00204FF48011064692
:1005A00084460EE0171B73EB050705D3121B63EBA4
:1005B000050306434CEA010C49084FEA3000921843
:1005C0005B4150EA0107EDD152EA030012D082EA02
:1005D000040083EA0501084305D0101BAB4106D295
:1005E0000122002306E000224FF0004302E06FF0FA
:1005F000010253101AEB06004CEB085110EB0A00F5
:1006000041EB0B01BDE8F04D00F045B9C10F80EAA8
:10061000E0700844CA079623002100F002B996232F
:100620000022114600F0FDB800F0004220F000402A
:10063000C10DC0F3160040F400007F2901DA00204C
:100640007047962903DCC1F19601C84001E0963954
:100650008840002AF4D04042704700F0004230F059
:1006600000400AD0C10D01F56071C0F3160042EAE6
:100670000151C208400711437047002001467047EE
:1006800030B5041E71F1000404DB4FF00044404219
:1006900064EB0101141E73F1000405DB1C464FF0EE
:1006A0000043524263EB04038B4208BF824230BDD9
:1006B00030B5041E71F1000404DB4FF000444042E9
:1006C00064EB0101141E73F1000405DB1C464FF0BE
:1006D0000043524263EB0403994208BF904230BD8D
:1006E00001F0004330B421F0004150EA010206D08D
:1006F0000A0DA2F56072C1F31301002A02DC30BCBE
:1007000000207047440F44EAC104C100E01830BC27
:1007100000EBC25000F07CB8002801DBC0F10040C3
:10072000002901DBC1F1004181427047002801DB53
:10073000C0F10040002901DBC1F10041884270474F
:1007400030B50B46014600202022012409E021FAA1
:1007500002F59D4205D303FA02F5491B04FA02F59E
:100760002844151EA2F10102F1DC30BD2DE9F05F35
:100770000546002092469B46884606468146402410
:100780001BE0284641464746224600F033F95346CF
:100790005A46C01A914110D311461846224600F01D
:1007A00016F82D1A67EB01084F462246012000215A
:1007B00000F00DF817EB00094E41201EA4F10104D2
:1007C000DFDC484631462A464346BDE8F09F202AF2
:1007D00004DB203A00FA02F1002070479140C2F198
:1007E000200320FA03F3194390407047202A06DBC8
:1007F000CB17203A41FA02F043EAE07306E041FAEF
:1008000002F3D040C2F120029140084319467047DC
:100810000029A8BF7047401C490008BF20F0010014
:10082000704710B4B0FA80FC00FA0CF050EA0104F2
:1008300004BF10BC704749B1CCF1200421FA04F484
:1008400011FA0CF118BF012121430843A3EB0C015D
:10085000CB1D4FEA00614FEA102042BF002010BCC0
:10086000704700EBC35010440029A4BF10BC704770
:10087000401C490008BF20F0010010BC7047420036
:1008800005D0C0F3C7525242914201DC00207047AC
:1008900000EBC150704710B5141E73F1000408DA64
:1008A000401C41F1000192185B411A4301D120F034
:1008B000010010BD2DE9F04D92469B4611B1B1FAF1
:1008C00081F202E0B0FA80F220329046FFF77FFF1B
:1008D00004460F4640EA0A0041EA0B0153465A46D5
:1008E000084313D0114653EA010019D0C8F1400261
:1008F000504600F07FF805460E465046594642469F
:10090000FFF765FF084305D0012004E02046394683
:10091000BDE8F08D0020054346EAE0762C433743DE
:100920000A986305E40AA0EB08000022FD0A44EAE5
:1009300047540A3002D500200146E9E701051019A5
:100940006941DDE9084500196941BDE8F04DA2E7BC
:10095000C1F30A52C1F3130140F2FF3341F4801195
:100960009A4202DA00200146704740F233439A422D
:10097000A2F2334202DC524200F03CB8FFF727BF3C
:1009800010B500F0004420F00040C20DC0F3160086
:1009900040F400007F2A07DA7D2A00DA7D22763AC9
:1009A00000FA02F1002008E0962A09DCA2F17601A3
:1009B00000FA01F1C2F19602D040FFF729FF01E0F1
:1009C000963A9040002C00D0404210BD0020704765
:1009D000064C074D06E0E06840F0010394E807008C
:1009E00098471034AC42F6D3FFF784FBEC34000890
:1009F0000C350008202A04DB203A21FA02F00021FD
:100A0000704721FA02F3D040C2F12002914008431E
:100A10001946704721B1826842F00102826003E00A
:100A2000826822F001028260704721B1826842F43C
:100A30008072826003E0826822F480728260704774
:100A4000014600208A6802F004020AB1012000E099
:100A5000002070470146C86C80B2704702460020F3
:100A600013680B400BB1012000E0002070470146E5
:100A700000208A6802F008020AB1012000E000208C
:100A80007047000030B502460020002350680F4C2C
:100A900020400D790C6844EA05242043506090689A
:100AA0000B4C2040D1E902542C434D7944EA4504D3
:100AB00020439060D06A20F470000C7C641EE4B285
:100AC000234340EA0350D06230BD0000FFFEF0FF38
:100AD000FDF7F1FFF0B504460D4600200021092D79
:100AE00011DDE068A5F10A0606EB4607072606FABF
:100AF00007F18843A5F10A0606EB460603FA06F15C
:100B00000843E0600CE0206905EB4507072606FA7C
:100B100007F1884305EB450603FA06F10843206117
:100B2000072A0FDA606B561E06EB86071F2606FAA9
:100B300007F18843561E06EB860605FA06F10843C0
:100B4000606322E00D2A0FDA206BD61F06EB8607C2
:100B50001F2606FA07F18843D61F06EB860605FA1C
:100B600006F10843206310E0E06AA2F10D0606EBEF
:100B700086071F2606FA07F18843A2F10D0606EB49
:100B8000860605FA06F10843E062F0BD816841F08F
:100B900008018160704721B1826842F4A00282603E
:100BA00003E0826822F4A00282607047816841F00D
:100BB000040181607047000010B501210648FFF76D
:100BC000EAFF00BF02210448FFF748FF0028F9D0E0
:100BD0000148FFF73FFF10BD0024014000B591B070
:100BE0000121480200F018FC0121042000F014FC4F
:100BF0004FF4004000F0F4FB00208DF84300022089
:100C0000ADF8400003208DF8420010A92E4800F0F6
:100C1000C9F80323012211462C48FFF75BFF00208F
:100C20000B900E904FF460200D9001208DF8310054
:100C300000208DF8300001208DF83C000BA92348DE
:100C4000FFF720FF21484C300090801506900020CF
:100C500004901F48008801904FF480600790802026
:100C6000059000200290042003902020089000208E
:100C70000A904FF4805009906946164800F03AF8FF
:100C80000121144800F02AF801211048FFF7CDFE99
:100C900001210E48FFF7BEFE0C48FFF777FF00BFAB
:100CA0000A48FFF7E4FE0128FAD00848FFF77EFF64
:100CB00000BF0648FFF7C4FE0128FAD0012103480F
:100CC000FFF769FF11B000BD00080140002401409A
:100CD000140000200800024000BFFEE721B10268B6
:100CE00042F00102026004E002684FF6FE731A400F
:100CF0000260704710B50022026847F6F0739A430D
:100D00000C6A8B6823430C6923434C6923438C6929
:100D10002343CC6923434C6A23438C6A23431A43FD
:100D20000260CB6843600B6883604B68C36010BD92
:100D3000704700B5034603E04FF47A7000F005F801
:100D4000181EA3F10103F7D100BD00EBC001C900DB
:100D50004FF0E0225161002191610521116100BF36
:100D60004FF0E021096901F480310029F8D0042115
:100D70004FF0E0221161704708B50121082000F012
:100D80004BFB10208DF803006020ADF8000003201D
:100D90008DF802006946024800F004F808BD000022
:100DA000000C01402DE9F0410246002500260020FC
:100DB00000230024002791F803C00CF00F0591F8E0
:100DC00003C00CF0100CBCF1000F03D091F802C06E
:100DD0004CEA050591F800C0BCF1000F31D0146851
:100DE00000202BE04FF0010C0CFA00F3B1F800C02A
:100DF0000CEA03069E4220D183004FF00F0C0CFA40
:100E000003F7BC4305FA03FC4CEA040491F803C061
:100E1000BCF1280F06D14FF0010C0CFA00FCC2F80F
:100E200014C00AE091F803C0BCF1480F05D14FF09F
:100E3000010C0CFA00FCC2F810C0401C0828D1D3E9
:100E40001460B1F800C0BCF1FF0F34DD546800201D
:100E50002EE000F1080C4FF0010808FA0CF3B1F88D
:100E600000C00CEA03069E4221D183004FF00F0C14
:100E70000CFA03F7BC4305FA03FC4CEA040491F8AE
:100E800003C0BCF1280F05D100F1080C08FA0CF8DA
:100E9000C2F8148091F803C0BCF1480F07D100F1EB
:100EA000080C4FF0010808FA0CF8C2F81080401C3A
:100EB0000828CED35460BDE8F081416170470161DC
:100EC00070470AB1016100E04161704710B500212F
:100ED00032480068FFF72AFC15D8314800683149CC
:100EE00008602F4801684FF07E50FFF791F92D49B7
:100EF00048602D480068001D2C4908602A48006899
:100F0000C01C486016E02648006880F00040254973
:100F10000860234801684FF07E50FFF727F9214908
:100F2000486021480068801C204908601E4800680D
:100F3000C01C486000211E480068FFF7F7FB15D869
:100F40001C4800681C4908601A4801684FF07E5030
:100F5000FFF75EF91849486018480068001D1849F5
:100F6000086016480068C01C486016E01148006818
:100F700080F00040104908600E4801684FF07E5034
:100F8000FFF7F4F80C4948600C480068801C0C49D5
:100F900008600A480068C01C486010BD800000203E
:100FA000900000209800002088000020B40000205D
:100FB0008400002094000020A00000208C0000206D
:100FC000BC00002000BFFEE72DE9F04705460E46B5
:100FD00014460B492046FFF7C9F88146314628469A
:100FE000FFF716F982464946FFF718F9804605498A
:100FF000FFF746F907463146FFF7B8F8BDE8F08736
:10100000000040400000C04000BFFEE7704770B5E0
:1010100000240EE00021204600F0E5F8002504E061
:10102000002000F001F9681CC5B2802DF8DB601CBF
:10103000C4B2082CEEDB70BD08B50121082000F019
:10104000EBF914208DF8030003208DF802004FF413
:101050008070ADF8000069460A48FFF7A3FE4FF420
:101060000070ADF8000069460648FFF79BFE0122BC
:1010700011020448FFF725FF012251020148FFF742
:1010800020FF08BD000C014070B50546002415E0A6
:101090008020204100EA05024FF400710E48FFF75E
:1010A00010FF012211020C48FFF70BFF00224FF442
:1010B00080710948FFF705FF601CC4B2082CE7DB0C
:1010C000012211020448FFF7FCFE00224FF4807158
:1010D0000148FFF7F6FE70BD000C014010B501227B
:1010E00051020A48FFF7EDFE012211020748FFF7FF
:1010F000E8FE00224FF400710448FFF7E2FE0022F0
:101100004FF480710148FFF7DCFE10BD000C014078
:1011100010B500224FF400710648FFF7D2FE0122FD
:1011200011020448FFF7CDFE012251020148FFF7EA
:10113000C8FE10BD000C014070B5002406E000257B
:1011400000E06D1CB5F57A7FFBD3641CB4F57A7FA3
:10115000F5D3FFF771FFAE2000F056F8D52000F070
:1011600053F8802000F050F8A82000F04DF83F2000
:1011700000F04AF8D32000F047F8002000F044F8CF
:10118000402000F041F8A12000F03EF8C82000F017
:101190003BF8DA2000F038F8122000F035F8812012
:1011A00000F032F8CF2000F02FF8D92000F02CF812
:1011B000F12000F029F8DB2000F026F8302000F0C4
:1011C00023F8A42000F020F8A62000F01DF88D20C0
:1011D00000F01AF8142000F017F8AF2000F014F80F
:1011E000FFF715FF70BD70B505460C4645F0B00021
:1011F00000F00AF8102141EA141000F005F804F09C
:101200000F0000F001F870BD10B50446FFF766FF4F
:101210007820FFF739FF0020FFF736FF2046FFF761
:1012200033FFFFF775FF10BD10B50446FFF756FFFB
:101230007820FFF729FF4020FFF726FF2046FFF721
:1012400023FFFFF765FF10BD10B5002117480068A8
:10125000FFF76CFA0ED820211548FFF730FE402129
:101260001348FFF72AFE11480068FFF7DDF911491E
:10127000086010E020210E48FFF71FFE40210C48B7
:10128000FFF71DFE0948006880F000442046FFF784
:10129000CBF90849086007480068B0F57A7F03DD9C
:1012A0004FF47A700349086010BD00002800002048
:1012B000000C01405400002000B589B0012108460F
:1012C00000F09AF80121042000F0A6F818208DF80B
:1012D00023000120ADF8200003208DF8220008A98A
:1012E0001A48FFF75FFD4FF0804000F009FA002038
:1012F000ADF81A00ADF8160040F2E730ADF818006E
:101300004720ADF8140000208DF81C0005A94FF00F
:10131000804000F053FA01A800F044FA6020ADF8D4
:1013200004000020ADF80C000120ADF806000020FC
:10133000ADF80A0001A94FF0804000F0E7F9012163
:10134000880700F0D1F909B000BD00000008014095
:1013500010B5044621464FF0804000F02DFA10BD34
:10136000704700002DE9F04F87B081468A46144649
:1013700021464846FFF7D0F900D24C465146204658
:10138000FFF7CAF900D2544651464846FEF740FFDF
:101390000746FFF762F9CDE9020151462046FEF704
:1013A00037FF8346FFF759F9074600220A4BFFF73C
:1013B0004CF8CDE90001DDE90223FFF7B8F800227F
:1013C000064BCDE90401FFF73AF80546FFF788F927
:1013D00007B0BDE8F08F0000000018400000084092
:1013E00001460020034A506820F440400843506002
:1013F000704700000010024029B1064AD26902433A
:10140000044BDA6104E0034AD2698243014BDA619A
:10141000704700000010024029B1064A9269024359
:10142000044B9A6104E0034A92698243014B9A613A
:10143000704700000010024030B500210022002457
:1014400000232D4D6D6805F00C0121B1042905D054
:10145000082923D105E0294D056022E0274D0560CC
:101460001FE0254D6D6805F47012234D6D6805F47D
:101470008034022505EB92421CB9214D554305608D
:101480000BE01D4D6D6805F400351DB11C4D554335
:10149000056002E0194D5543056002E0174D0560F7
:1014A00000BF00BF144D6D6805F0F0010909154D2E
:1014B0006B5C0568DD4045600F4D6D6805F4E061CB
:1014C000090A104D6B5C4568DD4085600A4D6D680A
:1014D00005F46051C90A0B4D6B5C4568DD40C56081
:1014E000054D6D6805F44041890B074D6B5CC5687F
:1014F000B5FBF3F5056130BD0010024000127A0023
:1015000000093D000000002010000020704700008E
:1015100000B585B001218803FFF77EFF012104207B
:10152000FFF77AFF18208DF813004FF40070ADF824
:10153000100003208DF8120004A90E48FFF732FCBA
:101540004FF4165000900020ADF80C000820ADF8C4
:101550000A000020ADF80800ADF80600ADF8040060
:101560006946054800F096F90121034800F078F932
:1015700005B000BD000801400038014010B5044628
:101580002146054800F0F2F900BF8021024800F032
:1015900073F90028F9D010BD0038014010B500F0F3
:1015A00001F810BD0CB50020019000903348006890
:1015B00040F480303149086000BF3048006800F4D2
:1015C000003000900198401C0190009818B90198D3
:1015D000B0F5A06FF1D12948006800F4003010B1D7
:1015E0000120009001E0002000900098012843D1E4
:1015F0002348006840F01000214908600846006850
:1016000020F0030008600846006840F0020008600F
:101610001A484068194948600846406848600846CA
:10162000406840F4806048600846406820F47C10C0
:1016300048600846406840F4E81048600846006882
:1016400040F08070086000BF0C48006800F0007037
:101650000028F9D00948406820F003000749486095
:101660000846406840F00200486000BF03484068F8
:1016700000F00C000828F9D10CBD00000010024059
:10168000002002407047000010B51348006840F089
:1016900001001149086008464068104908400E4999
:1016A0004860084600680E4908400B490860084633
:1016B000006820F4802008600846406820F4FE009E
:1016C00048604FF41F008860FFF768FF4FF000602C
:1016D0000449086010BD0000001002400000FFF83F
:1016E000FFFFF6FE08ED00E021B1028842F00102A2
:1016F000028004E002884FF6FE731A4002807047B1
:1017000001894FF6F87211400181704770B50024CD
:1017100000220023058C4FF6FE7635400584028CAE
:101720008388048B4FF68F752C40B51E2C400D8896
:101730002C43751E2A400D892A434D882A43144D97
:10174000A8420BD0134DA84208D0134DA84205D093
:10175000124DA84202D0124DA84213D14FF6F77590
:101760002A404D892A434FF6FB752A408D882A432B
:101770004FF6FF652B404FF6FF552B408D892B43CD
:10178000CD892B4383800483CD888586028470BDF8
:10179000002C014000340140004001400044014061
:1017A000004801400021018041808180C180018189
:1017B00041818181C1817047818670470022028802
:1017C0001D4B98420ED01D4B98420BD0B0F1804F6C
:1017D00008D01B4B984205D01A4B984202D01A4BA6
:1017E000984204D14FF68F731A404B881A43174B17
:1017F000984207D0164B984204D04FF6FF431A4048
:10180000CB881A4302808B8883850B8803850A4B1B
:1018100098420BD0094B984208D00E4B984205D005
:101820000D4B984202D00D4B984201D10B7A0386A2
:101830000123838270470000002C014000340140E6
:101840000004004000080040000C00400010004070
:1018500000140040004001400044014000480140A5
:1018600021B1828942F40052828104E082894DF6DE
:10187000FF731A408281704702460020B1F5007F55
:1018800000D100BF13880B400BB1012000E0002005
:10189000704700002DE9F04786B005460E4600244B
:1018A000A24600BFA1460027B08900B100BF2F4665
:1018B0002C8A4CF6FF700440F08804432C82AC89DB
:1018C0004EF6F3100440B08831890843718908430B
:1018D0000443AC81AC8A4FF6FF400440B089044316
:1018E000AC8201A8FFF7A8FD1F48874202D1DDF8AE
:1018F00010A001E0DDF80CA0A88900F4004040B180
:101900000AEBCA0000EB0A1031684900B0FBF1F89D
:1019100007E00AEBCA0000EB0A1031688900B0FB4F
:10192000F1F86420B8FBF0F004012009642101FB08
:101930001089A88900F4004040B1322000EBC900B2
:10194000B0FBF1F000F00700044308E0322000EBA8
:1019500009106421B0FBF1F000F00F0004432C816A
:1019600006B0BDE8F087000000380140C1F308026E
:101970008280704700BFFEE70FB4054B10B503A986
:10198000044A029800F008F910BC5DF814FB00004E
:10199000C7220008E00000204100080218BF042010
:1019A0000A0E18BF40F001004FF07F4232EA0101F9
:1019B00008BF40F00200012808BF05207047002141
:1019C0004FF07E50FEF75CBCFEF7D0BB002108460E
:1019D000FEF756BC61214FF0E040FEF750BF6FF0BC
:1019E0005E010807FEF74BBF02E008C8121F08C1DE
:1019F000002AFAD170477047002001E001C1121F90
:101A0000002AFBD1704700000149086070470000C0
:101A1000E40000202DE9FF5F82B00021DDE9043001
:101A2000020DDDF840B0034318D044F61050A2F286
:101A3000FF3242431514119801281FD0A5EB0B006B
:101A4000401C5FEA000A4FF000064E4FDFF8389165
:101A5000B046504615D5CAF1000413E01198012490
:101A60004AA3012801D16FEA0B010298119AC0E93B
:101A70000031C0E9024206B0BDE8F09FCBF10000A2
:101A8000DFE704460021404A491842EB0450CDE903
:101A9000001012E0E00707D032463B464046494678
:101AA000FEF7D3FC8046894632463B46104619462F
:101AB000FEF7CBFC06460F466410002CEAD1DDE9A8
:101AC0000401DDE90023BAF1000F06DAFEF7BDFCE0
:101AD00042464B46FEF7B9FC05E0FEF728FD4246BC
:101AE0004B46FEF724FD04460E460022284BFEF727
:101AF000DFFD03D84FF0FF30014607E00022254B01
:101B000020463146FEF7FAFBFEF722FF102409E0DB
:101B1000002C0ADB0A220023FEF728FE039B30324A
:101B20001A55641E50EA0102F2D1641C039AC4F1F2
:101B300011031444119A012A03D0012208430DD144
:101B40000AE0084304D000204FF0110B119072E717
:101B5000A3EB0B056D1E0DE05B4504DD4FF00002AD
:101B600005F1010504E003DA4FF00002A5F10105DB
:101B7000002AECD002981199C0E90231C0E9004571
:101B800079E70000000014400000F03F3000000042
:101B90000000F0430000E03F2DE9FF4F95B09B4669
:101BA0008946064600250FE2252877D100242746DE
:101BB000F84A0121059400E0044316F8013F203B58
:101BC00001FA03F01042F7D130782A2811D06FF0D3
:101BD0002F033078A0F13002092A16D8059A44F074
:101BE000020402EB820203EB42021044761C0590D1
:101BF000EFE759F8042B0592002A03DA504244F427
:101C00000054059044F00204761C30782E2816D13A
:101C100016F8010F44F004042A280DD06FF02F02AB
:101C20003078A0F13003092B09D807EB870302EBCA
:101C30004303C718761CF3E759F8047B761C307809
:101C40006C280FD006DC4C2817D068280DD06A28E5
:101C500014D104E0742810D07A280FD10DE044F498
:101C600000140AE044F4801401E044F44014727853
:101C7000824202D104F58014761C761C30786628E6
:101C80000BD013DC582877D009DC002875D0452804
:101C9000F6D04628F4D047281AD19DE118E06328F1
:101CA00035D0642879D0652812D195E1702873D099
:101CB00008DC6728F1D069286FD06E280DD06F2816
:101CC00006D1B5E073282CD0752875D0782874D04B
:101CD0005A46179990476D1C75E1C4F302500228CB
:101CE00009D003280DD0D9F8001004280DD00D60BC
:101CF00009F1040967E1D9F80010EA17C1E90052B7
:101D0000F6E7D9F800100D80F2E70D70F0E719F84A
:101D1000041B8DF8001000208DF80100EA46012018
:101D200003E059F804AB4FF0FF3061074FF00001BA
:101D300002D40DE008F101018846B9420FDA80456E
:101D4000F8DB1AF808100029F4D108E008F10101C5
:101D500088468142FADB1AF808100029F6D1059866
:101D60005B46A0EB080721463846179A00F094FA24
:101D7000284400EB080507E04DE029E10DE01AF8E2
:101D8000010B5A4617999047B8F10108F7D25B4604
:101D900021463846179A13E142E00A220092C4F322
:101DA00002524FF0000A022A08D059F804CB032A45
:101DB0004FEAEC710AD00DE029E02AE009F10701B1
:101DC00021F00702F2E802C1914609E00FFA8CFC0B
:101DD0004FEAEC71042A03D14FFA8CFC4FEAEC7104
:101DE000002907DA0A460021DCF1000C61EB020150
:101DF0002D2202E0220504D52B228DF80420012299
:101E000003E0E20701D02022F7E7904659E00A21DB
:101E100002E010220DE010214FF0000A00910BE0CB
:101E200010224FF0000A44F004040827009203E057
:101E300008224FF0000A0092C4F30252022A05D091
:101E400059F804CB0021032A08D009E009F1070161
:101E500021F00702F2E802C1914605E01FFA8CFC6E
:101E6000042A01D10CF0FF0C4FF00008220728D5FE
:101E7000702806D0009B83F0100353EA0A0305D0B4
:101E80000EE040228DF80420012208E05CEA010205
:101E900006D030228DF804208DF8050002229046ED
:101EA000009B83F0080353EA0A030AD15CEA0102AB
:101EB00001D1620705D530228DF804204FF00108CA
:101EC0007F1E582804D034A003900EA802900DE085
:101ED00036A0F9E753466046009AFEF747FC844671
:101EE0000398825C0298401E029002705CEA010036
:101EF000F0D1029806A9081A00F1200A600702D55D
:101F000024F4803400E00127574502DDA7EB0A00E6
:101F100000E0002000EB0A01009005984144401ABF
:101F20000590E00306D45B462146179A059800F019
:101F3000B3F90544002706E001A85A46C05D179989
:101F400090476D1C7F1C4745F6DBE0030CD55B46D4
:101F50002146179A059800F09FF9054404E03020C7
:101F60005A46179990476D1C0099481E0090002909
:101F7000F5DC08E0029802995A460078491C029163
:101F8000179990476D1CBAF10001AAF1010AF1DC22
:101F900065E100000928010030313233343536372D
:101FA00038396162636465660000000030313233A5
:101FB0003435363738394142434445460000000045
:101FC00000F058F90544761C307800287FF4ECAD19
:101FD00019B02846BDE8F08F620700D4062709F142
:101FE000070222F0070CFCE80223E14603F0004858
:101FF0005FEA080C02D00FF2702C0DE05FEA045C7F
:1020000002D50FF2682C07E05FEAC47C02D00FF221
:10201000602C01E0AFF2700C4FF0FF3823F000436A
:10202000CDF850C065280CD006DC452809D04628DC
:102030001DD047283DD13DE0662818D067287ED1C5
:1020400038E00021112F01DB112000E0781CCDE9E0
:10205000000106A90EA8FFF7DDFCDDE90F010E9ACD
:1020600003910021009207F1010A04914DE04FF025
:1020700000400097CDE9011006A90EA8FFF7CAFCA1
:10208000DDE90F0203920E9B11990022DDF80CA0EE
:102090000093049211B9791C00EB010AB7EB0A0016
:1020A00004D4C0F1FF3007F1010A0490AAEB070045
:1020B000019044E0012F00DA01270021112F01DDFA
:1020C000112000E03846CDE9000106A90EA8FFF76F
:1020D000A1FCDDE90F010E9A039100210491009209
:1020E000BA4621070CD40399514500DA8A46BAF161
:1020F000010F05DD009AAAF10101515C302908D0D9
:10210000B84202DA10F1040F06DA0121CDE901101C
:1021100015E0AAF10101E9E7002805DC0499014472
:102120000491AAEB000102E0411C514500DD8A4602
:102130000499401A401C01904FF000400290200783
:1021400004D40198504501DBCDF8048000208DF8BF
:102150004F0002980DF14F07B0F1004F25D02B2012
:102160000E9002984FF0020800280CDA40420290CC
:102170002D200E9007E00A210298FEF7E1FA303197
:10218000029007F8011DB8F10001A8F10108F2DC86
:1021900002980028EFD1791E0E980870307800F070
:1021A000200040F0450007F8020D12A8C01B00F106
:1021B00007081498007800B1012000EB0A0101988B
:1021C00001EBE07105984144401A401E0590E00380
:1021D00006D45B462146179A059800F05DF8054441
:1021E0001498007818B15A46179990476D1CE0036F
:1021F00024D55B462146179A059800F04DF8054412
:102200001CE00498002807DBDDE90301884203DDB8
:102210000098405C179901E0179930205A46904782
:10222000049805F10105401C04900198401E01909E
:1022300004D12E205A46179990476D1CBAF100011F
:10224000AAF1010ADDDC05E017F8010B5A461799DF
:1022500090476D1CB8F10001A8F10108F4DC5B4661
:102260002146179A0598ABE62D0000002B000000D0
:10227000200000002DE9F041044600251E461746C7
:10228000880404D405E039462020B0476D1C641E44
:10229000F9D52846BDE8F0812DE9F0410446002536
:1022A0001E469046C80301D5302700E02027880449
:1022B00004D505E041463846B0476D1C641EF9D58B
:1022C0002846BDE8F08170B504460D46E0B2FFF740
:1022D00055F9204670BD00002DE9F04F8BB0FEF798
:1022E0006BFC8246FEF79BF981464849FDF7C8FF23
:1022F0000446FEF7B2F907464FF06632444BFEF74C
:10230000A4F80546FEF7ECF9424908600846006863
:1023100000F048FF4049086008460068FEF79DF954
:1023200082463E4A3E4BFEF790F83E4A3E4BCDE990
:102330000801FDF7E3FF804642460B463B483C4917
:10234000FEF7F5F8064600223A4BFEF778F8044609
:10235000FEF7C6F9384908600846006880F000407A
:102360000290FEF77AF98046344A354BFEF7DFF8E3
:102370000646FEF7B5F901460390324800F002FC2C
:1023800083464FF07E51FDF746FF8246FEF765F922
:102390000446244A52422C4BFEF757F8CDE9060179
:1023A0002548006880F0004B5846FEF756F906466F
:1023B000264A274BFEF7BBF8CDE90001FEF790F95E
:1023C000014602901F4800F0DDFB4FF07E51039064
:1023D000FDF721FF8246FEF740F980461D4A1E4B5D
:1023E000FEF733F804461D4A1D4BFEF72BF8CDE9E6
:1023F0000401DDE90623FEF722F8CDE90801FEF726
:102400006FF9184908600BB0BDE8F08F00F07F4508
:1024100066660A4034000020D00000200E2DB29DD8
:10242000EFA7EA3F7B14AE47E17A0240B81E85EB86
:1024300051B84B40000028405000002017D9CEF77B
:1024400053E30740FDF62D401E8546401895D409FC
:1024500068A23340713D0AD7A3304C40EC51B81EFE
:1024600085BB564030000020ADF5227DFFF750F8C7
:10247000FEF762FEFEF7B2FBFEF71EFFFEF77CFCE6
:1024800045E3FFF729FFFE480168FE480068FDF7B5
:10249000BFFEFD49086008460268FC480168FC4828
:1024A0000068FEF75FFFFB49086008460068FEF71A
:1024B000BBF8F9490860F7480068FEF7B5F80890DE
:1024C000FEF7A4F80990F34801680998FDF7A3FE08
:1024D000F2490860F2480168EB480068FDF798FE91
:1024E000F0490860E8480068ED490860ED48026876
:1024F000ED480168ED480068FEF734FFEC490860DC
:1025000008460068FEF790F8EA490860E848006865
:10251000FEF78AF80890FEF779F80990E448016818
:102520000998FDF778FEE4490860FEF7CFFCC42265
:10253000E24971A8FDF7F6FDC422E049C43140A884
:10254000FDF7F0FDC4210FA8FDF705FEDC4840684B
:10255000C0EBC00071A901EB8000DA49496850F86E
:1025600021000590FEF752F80790D7484068059083
:10257000D648406804900599FDF750FE06900799EB
:10258000FDF74CFE0990CE484068C0EBC00071A931
:1025900001EB8000CB49096850F821000390FEF759
:1025A00035F80590C84800680390C8484068029014
:1025B0000399FDF733FE04900599FDF72FFE079070
:1025C000BF480068C0EBC00071A901EB8000BD49A5
:1025D000496850F821000190FEF718F80390BA48B6
:1025E00040680190B948006800900199FDF716FE17
:1025F00002900399FDF712FE0590B1480068C0EB08
:10260000C00071A901EB8000AE49096850F82100B3
:102610000190FDF7FBFF0390AB4800680190AB48C9
:10262000006800900199FDF7F9FD02900399FDF70C
:10263000F5FD04900599FDF799FD06900799FDF7C2
:1026400095FD08900999FDF791FD0E909C48406812
:10265000C0EBC00040A901EB80009A49496850F8DE
:1026600021000590FDF7D2FF07909748406805903C
:102670009648406804900599FDF7D0FD06900799AB
:10268000FDF7CCFD09908E484068C0EBC00040A922
:1026900001EB80008B49096850F821000390FDF799
:1026A000B5FF05908848006803908848406802900C
:1026B0000399FDF7B3FD04900599FDF7AFFD079071
:1026C0007F480068C0EBC00140A800EB81007D4955
:1026D000496850F821000190FDF798FF03907A486F
:1026E000406801907948006800900199FDF796FDD7
:1026F00002900399FDF792FD059071480068C0EBC8
:10270000C00140A800EB81006E49096850F8210023
:102710000190FDF77BFF03906B48006801906B48C8
:10272000006800900199FDF779FD02900399FDF78B
:1027300075FD04900599FDF719FD06900799FDF7C1
:1027400015FD08900999FDF711FD0D905C48406852
:10275000C0EBC0000FA901EB80005A49496850F84E
:1027600021000590FDF752FF0790574840680590FB
:102770005648406804900599FDF750FD069007996A
:10278000FDF74CFD09904E484068C0EBC0000FA912
:1027900001EB80004B49096850F821000390FDF7D8
:1027A00035FF05904848006803904848406802900B
:1027B0000399FDF733FD04900599FDF72FFD079070
:1027C0003F480068C0EBC0000FA901EB80003D4905
:1027D000496850F821000190FDF718FF03903A482E
:1027E000406801903948006800900199FDF716FD96
:1027F00002900399FDF712FD059031480068C0EB87
:10280000C0000FA901EB80002E49096850F8210093
:102810000190FDF7FBFE03902B48006801902B48C8
:10282000006800900199FDF7F9FC02900399FDF70B
:10283000F5FC04900599FDF799FC06900799FDF7C2
:1028400095FC08900999FDF791FC0C9020480E9A90
:10285000016820480068FEF7B7FB1F4908601F4861
:102860000D9A01681E480068FEF7AEFB1D4908601E
:102870001D480C9A01681D480068FEF7A5FB37E06B
:10288000300000202C0000201800002058000020FC
:102890005C000020800000208800002090000020C4
:1028A0001C000020240000206000002064000020A4
:1028B000840000208C0000209400002024320008B6
:1028C000B4000020BC000020A000002098000020E0
:1028D0007400002068000020A8000020780000207C
:1028E0006C000020AC0000207C0000207000002064
:1028F000874908608748016887480068FDF736FC0B
:10290000864908608648016886480068FDF72EFC05
:10291000854908607E48016884480068FDF726FC08
:102920008349086083480068FDF797FE4FF0333213
:10293000814BCDE90801FDF7BBFE17D27D48006849
:10294000FDF78BFE4FF033327C4BCDE90801FDF7EC
:1029500097FE0BD2704800687049086071480068A3
:1029600071490860714800687149086000216B482E
:102970000068FDF7D1FE02D20020684908600021FE
:1029800069480068FDF7C8FE02D200216648016070
:10299000002167480068FDF7BFFE02D200206449AD
:1029A000086067480B9067480A9067480068FDF721
:1029B00054FE664A664BCDE90401FDF746FDCDE9BC
:1029C000080164480068FDF748FECDE90601DDE92D
:1029D0000823FDF76DFE55D85F480168544800682C
:1029E000FDF71CFC0890534801684C480068FDF74F
:1029F00015FC07900899FDF7B9FB0990574909980C
:102A0000FDF78AFE0CD256490998FDF78FFE07D2D2
:102A10004848016853480068FDF7A8FB5149086021
:102A200050480B990068FDF781FE03D24D490B9881
:102A3000086008E04B480A990068FDF76DFE02D275
:102A400048490A9808604448016839480068FDF719
:102A5000E5FB08904348016833480068FDF7DEFB5A
:102A60000690344801682D480068FDF7D7FB0590B3
:102A70000699FDF77BFB07900899FDF777FB3A492C
:102A8000086015E00020374908603348016828488D
:102A90000068FDF7C3FB0990264801681F480068DD
:102AA000FDF7BCFB08900999FDF760FB2E49086013
:102AB0002048016819480068FDF7B0FB2B49086001
:102AC0002848016818480068FDF7A8FB28490860F5
:102AD0002148016816480068FDF7A0FB25490860F9
:102AE000FEF7B2FB2448008880B20990FEF730FC64
:102AF00018480068FDF7B1FD02460B46CDE9080114
:102B00001EA0FEF739FF3220FEF713F900BFB8E42C
:102B1000B0000020A8000020380000204400002061
:102B2000AC0000203C0000204800002040000020B5
:102B30004C000020180000203333D3BF3333D33F81
:102B40000000FA440000FAC42C0000209A999999D8
:102B50009999E93F300000202400002000007A44C9
:102B600000007AC42000002028000020C4000020BB
:102B7000C8000020CC00002054000020252E336621
:102B80000D0A00002DE9F04D0E460023A0F5000CC3
:102B90004FF00071354684B002464FF07E5401EB91
:102BA00045014FF07F48BCF1FE4F80F09F81B1F1AD
:102BB000804FC0F0DB81FE490144B1F5005F40F277
:102BC000A78200F58021C90C01F00F07C1F307119E
:102BD0007F39A2EBC15501EB030B3846FDF716FD1B
:102BE0006FF00301FDF74BFE4FF07E51FDF7BEFA8B
:102BF000014602902846FDF70BFB019028460299FA
:102C0000FDF7B4FA00F5006A6FF30B0A0090514625
:102C10000298FDF7FDFA2946FDF7A8FA02904FF059
:102C20007E500099FDF72CFB014600900198FDF7BE
:102C3000F5FA00F500656FF30B0528460299FDF7DC
:102C4000EDFA029051462846FDF7E8FA0199FDF7A2
:102C5000E2FA0299FDF7DCFA0099FDF7DFFA014686
:102C600001902846FDF782FA01460290FDF7D6FA58
:102C70008246D049FDF7D2FACF49FDF777FA51469F
:102C8000FDF7CCFA824600212846FDF7F8FD0090BA
:102C900051460298FDF7C2FA054600210198FDF75A
:102CA000EEFD2946FDF762FA824601460098FDF7DF
:102CB0005DFA00F500656FF30B0529460098FDF7F6
:102CC000A7FA5146FDF752FA8246BC492846FDF75D
:102CD000A5FA0090BA495046FDF7A0FA8246B949D4
:102CE0002846FDF79BFA5146FDF740FA8246014619
:102CF0000098FDF73BFA00F500656FF30B052946D8
:102D00000098FDF785FA5146FDF730FA8246AE4845
:102D1000784450F8371000EBC700019147684FEA3C
:102D20000B10FDF773FC009039465046FDF71EFA74
:102D30002946FDF71BFA0199FDF718FA0099FDF7EE
:102D400015FA00F5006B6FF30B0B58460099FDF771
:102D50005FFA0199FDF75CFA2946FDF759FA394601
:102D6000FDF756FA5146FDF756FA06F5006782461A
:102D70006FF30B0739463046FDF74AFA0021009001
:102D80000846FDF723FE00F00C0639465846FDF7CD
:102D900045FA054620F00040B0F18B4F0ADDB8EB54
:102DA000400F07D34FF08B4060F31E052F464FF0C6
:102DB000000A1FE038460099FDF7D8F95146FDF7A3
:102DC0002DFA074658460099FDF728FA3946FDF7CF
:102DD000CDF9824601462846FDF7C8F900F500679F
:102DE0006FF30B0739462846FDF712FA5146FDF7F7
:102DF000BDF9824631460C20FDF7E8FD51463846C4
:102E0000FDF7B4F9FDF7BCFD06460511FDF7FEFB25
:102E10003946FDF700FA5146FDF7A8F907466B4918
:102E2000FDF7FCF96A49FDF7A1F93946FDF7F6F916
:102E30006849FDF79BF93946FDF7F0F90146664808
:102E400006F00F06784450F82600FDF7E7F96349CD
:102E5000794451F82610FDF789F96149794451F810
:102E60002610FDF783F905F17D01FC2908D22946DA
:102E7000FDF705FD04B02146BDE8F04DFDF7CEB9E4
:102E800005F1BF01B1F5BF7F16D82946FDF7F7FC64
:102E90002146FDF7C3F90546B8EB450F1AD0680087
:102EA0000CD02846FEF778FD042808BFFEF797FDF2
:102EB000284604B0BDE8F08D002D0BDA0220FEF7A5
:102EC000A3FDFEF78CFD0146204604B061F31E0011
:102ED000BDE8F08D0220FEF797FDFEF77BFD014671
:102EE000204604B061F31E00BDE8F08DB1F1804FC3
:102EF0003CD300BF00F1FF41B1F1FE4F21D200BF32
:102F000020F00042C5F3C75110467F290DDB9729F9
:102F1000BFF651AEC1F196014FF0010C0CFA01F170
:102F2000A1F1010C1CEA050F07D00120FEF76CFD92
:102F300004B0BDE8F04DFEF749BD294218BF294C49
:102F400039E641001CBF4FF08071B1EB400F09D949
:102F50001B21FDF794FC02466FF01A0310F0004F9E
:102F6000CED128E6BCF1FE4F18D224E6B1F1007FA5
:102F70000ED336F0004105D006F0004141F0FC557B
:102F80002E46B7E7410018BFB8EB400F78D8B1E73D
:102F9000B1F1807F38BFA5F50006ABD320F000412A
:102FA0006FF0FF4C104C01EB0C03A3422FD31DE03C
:102FB000001080C07EE24C3EABAAAA3E00B0384270
:102FC0003BAA3842D49AB8BB98060000FC59633734
:102FD000C9FF753A1872313D6406000018060000FA
:102FE000CC050000000080BFFFFF3F0025F000433C
:102FF0009C44A4450BD3B0F17E5F18BF5FEA450C3B
:103000003ED0B1F1FF4F98BFB3F1FF4F05D904B0E7
:103010003146BDE8F04DFEF7D7BCB0F1FF4F0FD001
:10302000C5F3C7517F2909DB972911DAC1F1960150
:10303000012202FA01F14A1E2A4205D0002108E0CD
:1030400015F0004F55D128E0294218BF012100D1C9
:10305000022110F5000F14D020B3B0F1004F27D09B
:1030600010F1814F4ED04FF0FE41B1EB400F94BFB5
:1030700001200020012101EBE571884239D10CE0EB
:1030800040E015F0004F02D0012936D031E001298F
:1030900002BF3F4804B0BDE8F08D4FF0FF4004B0E0
:1030A000BDE8F08D15F000400ED104B0BDE8F08D04
:1030B000B5F1FF4F1DD015F5000F05D015F0004FED
:1030C00014D009B1012907D00220FEF79DFC04B0FD
:1030D000BDE8F04DFEF773BC0220FEF795FCFEF74D
:1030E0006EFC04B080F00040BDE8F08D09B101290C
:1030F00003D004B00020BDE8F08D04B04FF00040D4
:10310000BDE8F08D04B04FF07E50BDE8F08D00BFFB
:103110004FF07E51FDF77CF805466FF00101FDF799
:10312000AEFB1C49FDF777F82946FDF777F84FF01D
:103130007C51FDF770F8074629460846FDF76EF802
:1031400080F000403946FDF769F88246124928466A
:10315000FDF764F8074611495046FDF75FF88246CF
:103160000F492846FDF75AF85146FCF7FFFF054680
:1031700001463846FCF7FAFF00F5006B6FF30B0BC6
:1031800059463846FDF744F82946FCF7EFFFECE5D1
:10319000000080FFABAAAA3E00B0B8413BAAB841EC
:1031A000D49A38BB70B5044619481A4A126850F8C8
:1031B000221019480068FDF72BF805462146FCF758
:1031C000D5FF1549086012481249096840F82140A6
:1031D00010480068401C0A2190FBF1F201FB12002C
:1031E0000C4908600D4800680A2803DA0B4800689B
:1031F000401C00E00A200949086008460068FDF705
:1032000005FA0546294604480068FDF739F870BDFF
:10321000E8000020D4000020D8000020DC000020BE
:10322000FDF62D4003000000030000000300000035
:103230000300000003000000030000000300000082
:103240000200000002000000020000000200000076
:103250000200000002000000020000000100000067
:10326000010000000100000001000000010000005A
:10327000010000000100000000000000000000004C
:10328000000000000000000000000000000000003E
:10329000000000000100000001000000010000002B
:1032A000010000000100000001000000010000001A
:1032B0000200000002000000020000000200000006
:1032C00002000000020000000200000003000000F5
:1032D00003000000030000000300000003000000E2
:1032E0000300000003000000FDFFFFFFFDFFFFFFE4
:1032F000FDFFFFFFFDFFFFFFFDFFFFFFFDFFFFFFE6
:10330000FDFFFFFFFEFFFFFFFEFFFFFFFEFFFFFFD2
:10331000FEFFFFFFFEFFFFFFFEFFFFFFFEFFFFFFC1
:10332000FFFFFFFFFFFFFFFFFFFFFFFFFFFFFFFFAD
:10333000FFFFFFFFFFFFFFFFFFFFFFFF0000000099
:10334000000000000000000000000000000000007D
:103350000000000000000000FFFFFFFFFFFFFFFF75
:10336000FFFFFFFFFFFFFFFFFFFFFFFFFFFFFFFF6D
:10337000FFFFFFFFFEFFFFFFFEFFFFFFFEFFFFFF60
:10338000FEFFFFFFFEFFFFFFFEFFFFFFFEFFFFFF51
:10339000FDFFFFFFFDFFFFFFFDFFFFFFFDFFFFFF45
:1033A000FDFFFFFFFDFFFFFFFDFFFFFF000000002F
:1033B000000000000000B33FB2BE7D3A00002E4086
:1033C000DFCF513800007E40BF51FABA00E0A44080
:1033D00019DAC3BA00E0C840C2ED8AB90040EB4038
:1033E000CD1F2CBA001006412AFFFABA00C01541C1
:1033F000DFCFD13700D024419A97703A0050334143
:1034000089478E3600404141E75B9D3800B04E4110
:10341000C00A98B900A05B41558F943A00306841CA
:10342000DA92C0BA0040744162B3C63A0000803FED
:1034300000A0853F00908B3F00C0913F0030983F37
:1034400000F09E3F00F0A53F0050AD3F0000B53FAB
:103450000000BD3F0060C53F0020CE3F0040D73F89
:1034600000C0E03F00C0EA3F0020F53F0000000040
:103470007D36AC397D3C3839EBDCF438320A7E39A4
:10348000124C26399B6AED39A4EE83397F661E39CA
:10349000F6398A392B426539A48211395B991F3973
:1034A000C3EECD39DDE7C637A5A22F390000803F36
:1034B000C3AA853FC2958B3FD3C3913FF037983F56
:1034C00032F59E3FD7FEA53F3F58AD3FF304B53FD1
:1034D000A408BD3F2A67C53F8C24CE3FFD44D73F9B
:1034E000DFCCE03FC7C0EA3F7D25F53F0C35000843
:1034F00000000020E8000000E8190008F43500088A
:10350000E800002028040000F8190008000000006E
:103510000102030401020304060708090204060865
:10352000000000000000000000000000000000009B
:10353000000000000000000000000C42000000003D
:1035400000000000000048420000003F0000484228
:10355000000000000000000000000000000000006B
:1035600000000000000020C100002041000000BF5A
:103570000000003F00002042CDCC4C3D00007A44CA
:10358000000020C2CDCC4CBD0000C8C3000000002C
:10359000000000000000000000000000000000002B
:1035A000000000000000000000000000000000001B
:1035B000000000000000000000000000000000000B
:1035C00000000000000000000000000000000000FB
:1035D00000000000000000000000000000000000EB
:1035E00000000000000000000000000000000000DB
:0435F00000000000D7
:04000005080000ED02
:00000001FF
